{
  "contractName": "CropInsurancePolicyFactory",
  "abi": [
    {
      "inputs": [],
      "payable": false,
      "stateMutability": "nonpayable",
      "type": "constructor"
    },
    {
      "constant": true,
      "inputs": [
        {
          "internalType": "uint256",
          "name": "",
          "type": "uint256"
        }
      ],
      "name": "deployedPolicies",
      "outputs": [
        {
          "internalType": "address",
          "name": "",
          "type": "address"
        }
      ],
      "payable": false,
      "stateMutability": "view",
      "type": "function"
    },
    {
      "constant": true,
      "inputs": [],
      "name": "policyCount",
      "outputs": [
        {
          "internalType": "uint256",
          "name": "",
          "type": "uint256"
        }
      ],
      "payable": false,
      "stateMutability": "view",
      "type": "function"
    },
    {
      "constant": false,
      "inputs": [
        {
          "internalType": "address payable",
          "name": "_farmer",
          "type": "address"
        },
        {
          "internalType": "uint256",
          "name": "_insuredAmount",
          "type": "uint256"
        },
        {
          "internalType": "uint256",
          "name": "_premium",
          "type": "uint256"
        },
        {
          "internalType": "uint256",
          "name": "_startTime",
          "type": "uint256"
        },
        {
          "internalType": "uint256",
          "name": "_endTime",
          "type": "uint256"
        }
      ],
      "name": "createPolicy",
      "outputs": [
        {
          "internalType": "uint256",
          "name": "",
          "type": "uint256"
        }
      ],
      "payable": false,
      "stateMutability": "nonpayable",
      "type": "function"
    },
    {
      "constant": true,
      "inputs": [],
      "name": "getDeployedPolicies",
      "outputs": [
        {
          "internalType": "address[]",
          "name": "addresses",
          "type": "address[]"
        }
      ],
      "payable": false,
      "stateMutability": "view",
      "type": "function"
    }
  ],
  "bytecode": "0x608060405234801561001057600080fd5b50600060015561095c806100256000396000f3fe608060405234801561001057600080fd5b506004361061004c5760003560e01c80630b3ce015146100515780635b26b819146100a95780638890533f146100f9578063de54d42914610132575b600080fd5b61005961013a565b60408051602080825283518183015283519192839290830191858101910280838360005b8381101561009557818101518382015260200161007d565b505050509050019250505060405180910390f35b6100e7600480360360a08110156100bf57600080fd5b506001600160a01b03813516906020810135906040810135906060810135906080013561019c565b60408051918252519081900360200190f35b6101166004803603602081101561010f57600080fd5b5035610264565b604080516001600160a01b039092168252519081900360200190f35b6100e761028b565b6060600080548060200260200160405190810160405280929190818152602001828054801561019257602002820191906000526020600020905b81546001600160a01b03168152600190910190602001808311610174575b5050505050905090565b6000803387878787876040516101b190610291565b6001600160a01b0396871681529490951660208501526040808501939093526060840191909152608083015260a082019290925290519081900360c001906000f080158015610204573d6000803e3d6000fd5b5060008054600180820183559180527f290decd9548b62a8d60345a988386fc84ba6bc95484008f6362f93160ef3e5630180546001600160a01b0319166001600160a01b0393909316929092179091558054810190555095945050505050565b6000818154811061027157fe5b6000918252602090912001546001600160a01b0316905081565b60015481565b6106898061029f8339019056fe608060405234801561001057600080fd5b50604051610689380380610689833981810160405260c081101561003357600080fd5b508051602082015160408301516060840151608085015160a09095015160068054600080546001600160a01b0319166001600160a01b03978816178155600595909555600293909355600396909655600455610100600160a81b03191661010092909316919091029190911760ff19169091556105d39081906100b690396000f3fe60806040526004361061009c5760003560e01c806367c0d00f1161006457806367c0d00f1461012057806378e97925146101355780638da5cb5b1461014a578063941376ee1461015f578063c19d93fb1461019f578063e0a73a93146101d85761009c565b806301146844146100a157806312065fe0146100ab57806329c08ba2146100d25780633197cbb6146100da5780634f8632ba146100ef575b600080fd5b6100a96101ed565b005b3480156100b757600080fd5b506100c061021d565b60408051918252519081900360200190f35b6100a9610221565b3480156100e657600080fd5b506100c0610293565b3480156100fb57600080fd5b50610104610299565b604080516001600160a01b039092168252519081900360200190f35b34801561012c57600080fd5b506100c06102a8565b34801561014157600080fd5b506100c06102ae565b34801561015657600080fd5b506101046102b4565b34801561016b57600080fd5b506100a96004803603608081101561018257600080fd5b5080359060208101359060408101351515906060013515156102c8565b3480156101ab57600080fd5b506101b461058f565b604051808260038111156101c457fe5b60ff16815260200191505060405180910390f35b3480156101e457600080fd5b506100c0610598565b60065461010090046001600160a01b0316331461020957600080fd5b60025460055403341461021b57600080fd5b565b4790565b6000546001600160a01b03163314610276576040805162461bcd60e51b8152602060048201526013602482015272155cd95c88139bdd08105d5d1a1bdc9a5e9959606a1b604482015290519081900360640190fd5b600254341461028457600080fd5b6006805460ff19166001179055565b60045481565b6000546001600160a01b031681565b60055481565b60035481565b60065461010090046001600160a01b031681565b6000546001600160a01b0316331461031d576040805162461bcd60e51b8152602060048201526013602482015272155cd95c88139bdd08105d5d1a1bdc9a5e9959606a1b604482015290519081900360640190fd5b600160065460ff16600381111561033057fe5b14610376576040805162461bcd60e51b8152602060048201526011602482015270506f6c696379204e6f742041637469766560781b604482015290519081900360640190fd5b6004544211156103dc5760068054600360ff199091161790556040805162461bcd60e51b815260206004820152601a60248201527f506f6c696379277320706572696f642068617320456e6465642e000000000000604482015290519081900360640190fd5b600354421015610433576040805162461bcd60e51b815260206004820152601f60248201527f496e737572616e6365204e6f7420436f766572656420627920506f6c69637900604482015290519081900360640190fd5b600082156104fe5760028413156104a05760055460649081025b600080546040519390920493506001600160a01b039091169183156108fc0291849190818181858888f1935050505015801561048d573d6000803e3d6000fd5b506006805460ff191660021790556104f9565b6005546064906032025b600080546040519390920493506001600160a01b039091169183156108fc0291849190818181858888f193505050501580156104ea573d6000803e3d6000fd5b506006805460ff191660021790555b610588565b811561051a5760028413156104a057600554606490810261044d565b60058413156105305760055460649081026104aa565b600554606490603202600080546040519390920493506001600160a01b039091169183156108fc0291849190818181858888f19350505050158015610579573d6000803e3d6000fd5b506006805460ff191660021790555b5050505050565b60065460ff1681565b6002548156fea265627a7a7231582015d5e2c5d1eee5b9548bc535748ceb8fb364bcf23a32ac9826a5e7cad87bfc2164736f6c63430005110032a265627a7a723158205237fdaa790ed0dcf20a92141c73910095a1ca61d73dbd4c161633c41590f4c264736f6c63430005110032",
  "source": "pragma solidity ^0.5.0;\r\n\r\ncontract CropInsurancePolicyFactory {\r\n    address[] public deployedPolicies;\r\n    //One more than the actual array index\r\n    uint256 public policyCount;\r\n\r\n    function createPolicy(\r\n        address payable _farmer,\r\n        uint256 _insuredAmount,\r\n        uint256 _premium,\r\n        uint256 _startTime,\r\n        uint256 _endTime\r\n    ) public returns (uint256) {\r\n        address newPolicy = address(\r\n            new CropInsurancePolicy(\r\n                msg.sender,\r\n                _farmer,\r\n                _insuredAmount,\r\n                _premium,\r\n                _startTime,\r\n                _endTime\r\n            )\r\n        );\r\n        deployedPolicies.push(newPolicy);\r\n        policyCount = policyCount + 1;\r\n    }\r\n\r\n    function getDeployedPolicies()\r\n        public\r\n        view\r\n        returns (address[] memory addresses)\r\n    {\r\n        return deployedPolicies;\r\n    }\r\n\r\n    constructor() public {\r\n        policyCount = 0;\r\n    }\r\n}\r\n\r\ncontract CropInsurancePolicy {\r\n    //for BaseMin to BaseMax -> BasePayout% . for > Max -> MaxPayout%\r\n    uint8 constant floodBaseMin = 1;\r\n    uint8 constant floodBaseMax = 2;\r\n    uint8 constant floodBasePayout = 50; //50% of coverage\r\n    uint8 constant floodMaxPayout = 100; //100% of coverage\r\n\r\n    //for BaseMin to BaseMax -> BasePayout% . for < Min -> MaxPayout%\r\n    uint8 constant droughtBaseMin = 1;\r\n    uint8 constant droughtBaseMax = 2;\r\n    uint8 constant droughtBasePayout = 50; //50% of coverage\r\n    uint8 constant droughtMaxPayout = 100; //100% of coverage\r\n\r\n    uint8 constant frostBaseMin = 2;\r\n    uint8 constant frostBaseMax = 5;\r\n    uint8 constant frostBasePayout = 50; //50% of coverage\r\n    uint8 constant frostMaxPayout = 100; //100% of coverage\r\n\r\n    enum policyState {\r\n        Pending,\r\n        Active,\r\n        PaidOut,\r\n        TimedOut\r\n    }\r\n    address payable public user;\r\n    address riskmanager;\r\n    uint256 public premium;\r\n    uint256 public startTime;\r\n    uint256 public endTime; //crop's season dependent\r\n    uint256 public coverageAmount; //depends on crop type\r\n    policyState public state;\r\n\r\n    address payable public owner;\r\n\r\n    constructor(\r\n        address payable creator,\r\n        address payable _farmer,\r\n        uint256 _insuredAmount,\r\n        uint256 _premium,\r\n        uint256 _startTime,\r\n        uint256 _endTime\r\n    ) public {\r\n        // require(msg.value >= (_insuredAmount - _premium), \"Insufficient Seed Amount\");\r\n        owner = creator;\r\n        user = _farmer;\r\n        coverageAmount = _insuredAmount;\r\n        premium = _premium;\r\n        startTime = _startTime;\r\n        endTime = _endTime;\r\n        state = policyState.Pending;\r\n    }\r\n\r\n    modifier onlyOwner() {\r\n        require(msg.sender == owner);\r\n        _;\r\n    }\r\n\r\n    modifier onlyFarmer() {\r\n        require(msg.sender == user, \"User Not Authorized\");\r\n        _;\r\n    }\r\n\r\n    function loadFund() public payable onlyOwner {\r\n        require(msg.value == coverageAmount - premium);\r\n    }\r\n\r\n    function payPremium() public payable onlyFarmer {\r\n        require(msg.value == premium);\r\n        state = policyState.Active;\r\n    }\r\n\r\n    function claim(\r\n        uint256 _timestamp,\r\n        int256 _result,\r\n        bool _isFlood,\r\n        bool _isDrought\r\n    ) public onlyFarmer {\r\n        require(state == policyState.Active, \"Policy Not Active\");\r\n\r\n        if (now > endTime) {\r\n            state = policyState.TimedOut;\r\n            revert(\"Policy's period has Ended.\");\r\n        }\r\n        if (now < startTime) revert(\"Insurance Not Covered by Policy\");\r\n        uint256 payoutAmount;\r\n\r\n        if (_isFlood) {\r\n            if (_result > floodBaseMax) {\r\n                payoutAmount = uint256((coverageAmount * floodMaxPayout) / 100);\r\n                user.transfer(payoutAmount);\r\n                state = policyState.PaidOut;\r\n            } else {\r\n                payoutAmount = uint256(\r\n                    (coverageAmount * floodBasePayout) / 100\r\n                );\r\n                user.transfer(payoutAmount);\r\n                state = policyState.PaidOut;\r\n            }\r\n        } else if (_isDrought) {\r\n            if (_result > droughtBaseMax) {\r\n                payoutAmount = uint256(\r\n                    (coverageAmount * droughtMaxPayout) / 100\r\n                );\r\n                user.transfer(payoutAmount);\r\n                state = policyState.PaidOut;\r\n            } else {\r\n                payoutAmount = uint256(\r\n                    (coverageAmount * droughtBasePayout) / 100\r\n                );\r\n                user.transfer(payoutAmount);\r\n                state = policyState.PaidOut;\r\n            }\r\n        } else {\r\n            if (_result > frostBaseMax) {\r\n                payoutAmount = uint256((coverageAmount * frostMaxPayout) / 100);\r\n                user.transfer(payoutAmount);\r\n                state = policyState.PaidOut;\r\n            } else {\r\n                payoutAmount = uint256(\r\n                    (coverageAmount * frostBasePayout) / 100\r\n                );\r\n                user.transfer(payoutAmount);\r\n                state = policyState.PaidOut;\r\n            }\r\n        }\r\n    }\r\n\r\n    function getBalance() public view returns (uint256) {\r\n        return address(this).balance;\r\n    }\r\n}\r\n",
  "sourcePath": "D:\\Blockchain\\AgroChain Project\\Smart Contract\\contracts\\Insurance.sol",
  "compiler": {
    "name": "solc",
    "version": "0.5.17+commit.d19bba13.Emscripten.clang"
  },
  "schemaVersion": "3.4.4",
  "updatedAt": "2022-02-05T19:41:59.475Z",
  "networkType": "ethereum",
  "devdoc": {
    "methods": {}
  },
  "userdoc": {
    "methods": {}
  }
}