{
  "contractName": "CrowdFarmingProjectFactory",
  "abi": [
    {
      "inputs": [],
      "payable": false,
      "stateMutability": "nonpayable",
      "type": "constructor"
    },
    {
      "constant": true,
      "inputs": [
        {
          "internalType": "uint256",
          "name": "",
          "type": "uint256"
        }
      ],
      "name": "deployedProjects",
      "outputs": [
        {
          "internalType": "address",
          "name": "",
          "type": "address"
        }
      ],
      "payable": false,
      "stateMutability": "view",
      "type": "function"
    },
    {
      "constant": true,
      "inputs": [],
      "name": "projectCount",
      "outputs": [
        {
          "internalType": "uint256",
          "name": "",
          "type": "uint256"
        }
      ],
      "payable": false,
      "stateMutability": "view",
      "type": "function"
    },
    {
      "constant": false,
      "inputs": [
        {
          "internalType": "uint256",
          "name": "minimum",
          "type": "uint256"
        }
      ],
      "name": "createProject",
      "outputs": [
        {
          "internalType": "uint256",
          "name": "",
          "type": "uint256"
        }
      ],
      "payable": false,
      "stateMutability": "nonpayable",
      "type": "function"
    },
    {
      "constant": true,
      "inputs": [],
      "name": "getDeployedProjects",
      "outputs": [
        {
          "internalType": "address[]",
          "name": "addresses",
          "type": "address[]"
        }
      ],
      "payable": false,
      "stateMutability": "view",
      "type": "function"
    }
  ],
  "bytecode": "0x608060405234801561001057600080fd5b506000600155610c28806100256000396000f3fe608060405234801561001057600080fd5b506004361061004c5760003560e01c806336fbad26146100515780637ac3886e1461006b578063992034d7146100c35780639ec6deaf146100e0575b600080fd5b610059610119565b60408051918252519081900360200190f35b61007361011f565b60408051602080825283518183015283519192839290830191858101910280838360005b838110156100af578181015183820152602001610097565b505050509050019250505060405180910390f35b610059600480360360208110156100d957600080fd5b5035610181565b6100fd600480360360208110156100f657600080fd5b503561021e565b604080516001600160a01b039092168252519081900360200190f35b60015481565b6060600080548060200260200160405190810160405280929190818152602001828054801561017757602002820191906000526020600020905b81546001600160a01b03168152600190910190602001808311610159575b5050505050905090565b600080823360405161019290610245565b9182526001600160a01b03166020820152604080519182900301906000f0801580156101c2573d6000803e3d6000fd5b5060008054600180820183559180527f290decd9548b62a8d60345a988386fc84ba6bc95484008f6362f93160ef3e5630180546001600160a01b0319166001600160a01b03939093169290921790915580548101905550919050565b6000818154811061022b57fe5b6000918252602090912001546001600160a01b0316905081565b6109a1806102538339019056fe608060405234801561001057600080fd5b506040516109a13803806109a18339818101604052604081101561003357600080fd5b508051602090910151600280546001600160a01b0319166001600160a01b039092169190911790556005556006805460ff191660011790556109278061007a6000396000f3fe6080604052600436106100a75760003560e01c8063937e09b111610064578063937e09b11461022e5780639eceddea14610243578063c23f23241461026d578063d0db317114610297578063d7bb99ba14610358578063f3470be414610360576100a7565b806312065fe0146100ac5780631adff0ee146100d35780635cc07076146100ea5780635e15c749146101be5780637569b3d7146101e85780638da5cb5b146101fd575b600080fd5b3480156100b857600080fd5b506100c1610389565b60408051918252519081900360200190f35b3480156100df57600080fd5b506100e861038e565b005b3480156100f657600080fd5b506101146004803603602081101561010d57600080fd5b5035610436565b6040518080602001868152602001856001600160a01b03166001600160a01b0316815260200184151515158152602001838152602001828103825287818151815260200191508051906020019080838360005b8381101561017f578181015183820152602001610167565b50505050905090810190601f1680156101ac5780820380516001836020036101000a031916815260200191505b50965050505050505060405180910390f35b3480156101ca57600080fd5b506100e8600480360360208110156101e157600080fd5b503561050f565b3480156101f457600080fd5b506100c16105d2565b34801561020957600080fd5b506102126105d8565b604080516001600160a01b039092168252519081900360200190f35b34801561023a57600080fd5b506100c16105e7565b34801561024f57600080fd5b506100e86004803603602081101561026657600080fd5b50356105ed565b34801561027957600080fd5b506102126004803603602081101561029057600080fd5b5035610675565b3480156102a357600080fd5b506100e8600480360360608110156102ba57600080fd5b8101906020810181356401000000008111156102d557600080fd5b8201836020820111156102e757600080fd5b8035906020019184600183028401116401000000008311171561030957600080fd5b91908080601f01602080910402602001604051908101604052809392919081815260200183838082843760009201919091525092955050823593505050602001356001600160a01b031661069c565b6100e861079f565b34801561036c57600080fd5b50610375610817565b604080519115158252519081900360200190f35b475b90565b6002546001600160a01b031633146103a557600080fd5b60065460ff166103b457600080fd5b6006805460ff1916905560045460009047816103cc57fe5b04905060005b60015481101561043257600181815481106103e957fe5b60009182526020822001546040516001600160a01b039091169184156108fc02918591818181858888f19350505050158015610429573d6000803e3d6000fd5b506001016103d2565b5050565b6000818154811061044357fe5b60009182526020918290206005919091020180546040805160026001841615610100026000190190931692909204601f8101859004850283018501909152808252919350918391908301828280156104dc5780601f106104b1576101008083540402835291602001916104dc565b820191906000526020600020905b8154815290600101906020018083116104bf57829003601f168201915b5050505060018301546002840154600390940154929390926001600160a01b0382169250600160a01b90910460ff169085565b6002546001600160a01b0316331461052657600080fd5b600080828154811061053457fe5b9060005260206000209060050201905060026004548161055057fe5b048160030154101561056157600080fd5b6002810154600160a01b900460ff161561057a57600080fd5b600281015460018201546040516001600160a01b039092169181156108fc0291906000818181858888f193505050501580156105ba573d6000803e3d6000fd5b50600201805460ff60a01b1916600160a01b17905550565b60045481565b6002546001600160a01b031681565b60055481565b3360009081526003602052604090205460ff1661060957600080fd5b600080828154811061061757fe5b600091825260208083203384526004600590930201918201905260409091205490915060ff161561064757600080fd5b3360009081526004820160205260409020805460ff1916600190811790915560039091018054909101905550565b6001818154811061068257fe5b6000918252602090912001546001600160a01b0316905081565b6002546001600160a01b031633146106b357600080fd5b6106bb610820565b506040805160a08101825284815260208082018590526001600160a01b03841692820192909252600060608201819052608082018190528054600181018083559180528251805193949293859360059093027f290decd9548b62a8d60345a988386fc84ba6bc95484008f6362f93160ef3e563019261073e92849291019061085a565b5060208201516001820155604082015160028201805460608501511515600160a01b0260ff60a01b196001600160a01b039094166001600160a01b031990921691909117929092169190911790556080909101516003909101555050505050565b6005543410156107ae57600080fd5b336000818152600360205260408120805460ff1916600190811790915580548082018255918190527fb10e2d527612073b26eecdfd717e6a320cf44b4afac2b0732d9fcbe2b7fa0cf690910180546001600160a01b031916909217909155600480549091019055565b60065460ff1681565b6040518060a00160405280606081526020016000815260200160006001600160a01b03168152602001600015158152602001600081525090565b828054600181600116156101000203166002900490600052602060002090601f016020900481019282601f1061089b57805160ff19168380011785556108c8565b828001600101855582156108c8579182015b828111156108c85782518255916020019190600101906108ad565b506108d49291506108d8565b5090565b61038b91905b808211156108d457600081556001016108de56fea265627a7a7231582098f4f13f9f97828eec6bac798437dde47d679f9a38a7c5bcd00a0aafc49713d164736f6c63430005110032a265627a7a72315820bbfb15b1bc6e46da1157132e48c7897044e70a4fa73c4bf2c9a057847ca2c05464736f6c63430005110032",
  "source": "pragma solidity ^0.5.0;\r\n\r\ncontract CrowdFarmingProjectFactory {\r\n    address[] public deployedProjects;\r\n    //One more than the actual array index\r\n    uint public projectCount;\r\n    \r\n    function createProject(uint minimum) public returns (uint256) {\r\n        address newProject = address(new CrowdFarmingProject(minimum, msg.sender));\r\n        deployedProjects.push(newProject);\r\n        projectCount = projectCount + 1;\r\n    }\r\n    \r\n    function getDeployedProjects() public view returns (address[] memory addresses){\r\n        return deployedProjects;\r\n    }\r\n    \r\n    constructor() public {\r\n        projectCount = 0;\r\n    }\r\n}\r\n\r\ncontract CrowdFarmingProject {\r\n    struct Withdrawal {\r\n        string description;\r\n        uint value;\r\n        address payable recipient;\r\n        bool complete;\r\n        uint approvalCount;\r\n        mapping(address => bool) approvals;\r\n    }\r\n    \r\n    Withdrawal[] public withdrawals;\r\n    address payable [] public ContributorsAddress;\r\n    address public owner;\r\n    mapping(address => bool) contributors;\r\n    uint public contributorsCount;\r\n    uint public minimumContribution;\r\n    bool public projectActive;\r\n    \r\n    constructor(uint minimum, address creator) public {\r\n        owner = creator;\r\n        minimumContribution = minimum;\r\n        projectActive = true;\r\n    }\r\n    \r\n    function contribute() public payable {\r\n        require(msg.value >= minimumContribution);\r\n        contributors[msg.sender] = true;\r\n        ContributorsAddress.push(msg.sender);\r\n        contributorsCount++;\r\n    }\r\n    \r\n    modifier onlyOwner(){\r\n        require(msg.sender == owner);\r\n        _;\r\n    }\r\n    \r\n    modifier onlyContributor(){\r\n        require(contributors[msg.sender]);\r\n        _;\r\n    }\r\n    \r\n    \r\n    function createWithdrawal(string memory description, uint value, address payable recipient) public onlyOwner {\r\n        Withdrawal memory newWithdrawal = Withdrawal({\r\n            description: description,\r\n            value: value,\r\n            recipient: recipient,\r\n            complete: false,\r\n            approvalCount: 0\r\n        });\r\n        withdrawals.push(newWithdrawal);\r\n    }\r\n    \r\n    function approveWithdrawal(uint index) public onlyContributor {\r\n        Withdrawal storage withdrawal = withdrawals[index];\r\n        \r\n        require(!withdrawal.approvals[msg.sender]);\r\n        \r\n        withdrawal.approvals[msg.sender] = true;\r\n        withdrawal.approvalCount++;\r\n    }\r\n    \r\n    function finalizeWithdrawal(uint index) public onlyOwner {\r\n        Withdrawal storage withdrawal = withdrawals[index];\r\n        \r\n        require(withdrawal.approvalCount >= (contributorsCount / 2));\r\n        require(!withdrawal.complete);\r\n        \r\n        withdrawal.recipient.transfer(withdrawal.value);\r\n        withdrawal.complete = true;\r\n    }\r\n    \r\n    function cancelProject() public onlyOwner {\r\n        require(projectActive);\r\n        projectActive = false;\r\n        \r\n        uint remainingAmountForEachContributor = uint(address(this).balance) / contributorsCount;\r\n        \r\n        for(uint i = 0; i < ContributorsAddress.length; i++){\r\n            ContributorsAddress[i].transfer(remainingAmountForEachContributor);\r\n        }\r\n    }\r\n    \r\n    function getBalance() public view returns (uint256) {\r\n        return address(this).balance;\r\n    }\r\n}",
  "sourcePath": "D:\\Blockchain\\AgroChain Project\\Smart Contract\\contracts\\CrowdFarming.sol",
  "compiler": {
    "name": "solc",
    "version": "0.5.17+commit.d19bba13.Emscripten.clang"
  },
  "schemaVersion": "3.4.4",
  "updatedAt": "2022-02-05T19:41:59.464Z",
  "networkType": "ethereum",
  "devdoc": {
    "methods": {}
  },
  "userdoc": {
    "methods": {}
  }
}