{
  "contractName": "SupplyChain",
  "abi": [
    {
      "inputs": [],
      "payable": false,
      "stateMutability": "nonpayable",
      "type": "constructor"
    },
    {
      "anonymous": false,
      "inputs": [
        {
          "indexed": false,
          "internalType": "uint256",
          "name": "sku",
          "type": "uint256"
        }
      ],
      "name": "LogHarvested",
      "type": "event"
    },
    {
      "anonymous": false,
      "inputs": [
        {
          "indexed": false,
          "internalType": "uint256",
          "name": "sku",
          "type": "uint256"
        }
      ],
      "name": "LogIssued",
      "type": "event"
    },
    {
      "anonymous": false,
      "inputs": [
        {
          "indexed": false,
          "internalType": "uint256",
          "name": "sku",
          "type": "uint256"
        }
      ],
      "name": "LogPlanted",
      "type": "event"
    },
    {
      "anonymous": false,
      "inputs": [
        {
          "indexed": false,
          "internalType": "uint256",
          "name": "sku",
          "type": "uint256"
        }
      ],
      "name": "LogShipped",
      "type": "event"
    },
    {
      "anonymous": false,
      "inputs": [
        {
          "indexed": false,
          "internalType": "uint256",
          "name": "sku",
          "type": "uint256"
        }
      ],
      "name": "LogVerified",
      "type": "event"
    },
    {
      "constant": true,
      "inputs": [
        {
          "internalType": "uint256",
          "name": "",
          "type": "uint256"
        }
      ],
      "name": "items",
      "outputs": [
        {
          "internalType": "string",
          "name": "name",
          "type": "string"
        },
        {
          "internalType": "uint256",
          "name": "sku",
          "type": "uint256"
        },
        {
          "internalType": "uint256",
          "name": "price",
          "type": "uint256"
        },
        {
          "internalType": "enum SupplyChain.State",
          "name": "state",
          "type": "uint8"
        },
        {
          "internalType": "address",
          "name": "buyer",
          "type": "address"
        }
      ],
      "payable": false,
      "stateMutability": "view",
      "type": "function"
    },
    {
      "constant": true,
      "inputs": [],
      "name": "skuCount",
      "outputs": [
        {
          "internalType": "uint256",
          "name": "",
          "type": "uint256"
        }
      ],
      "payable": false,
      "stateMutability": "view",
      "type": "function"
    },
    {
      "constant": false,
      "inputs": [
        {
          "internalType": "string",
          "name": "_name",
          "type": "string"
        },
        {
          "internalType": "uint256",
          "name": "_price",
          "type": "uint256"
        },
        {
          "internalType": "address",
          "name": "_buyer",
          "type": "address"
        }
      ],
      "name": "issueCrop",
      "outputs": [
        {
          "internalType": "bool",
          "name": "",
          "type": "bool"
        }
      ],
      "payable": false,
      "stateMutability": "nonpayable",
      "type": "function"
    },
    {
      "constant": false,
      "inputs": [
        {
          "internalType": "uint256",
          "name": "sku",
          "type": "uint256"
        }
      ],
      "name": "plantCrop",
      "outputs": [],
      "payable": false,
      "stateMutability": "nonpayable",
      "type": "function"
    },
    {
      "constant": false,
      "inputs": [
        {
          "internalType": "uint256",
          "name": "sku",
          "type": "uint256"
        }
      ],
      "name": "harvestCrop",
      "outputs": [],
      "payable": false,
      "stateMutability": "nonpayable",
      "type": "function"
    },
    {
      "constant": false,
      "inputs": [
        {
          "internalType": "uint256",
          "name": "sku",
          "type": "uint256"
        }
      ],
      "name": "verifyCrop",
      "outputs": [],
      "payable": false,
      "stateMutability": "nonpayable",
      "type": "function"
    },
    {
      "constant": false,
      "inputs": [
        {
          "internalType": "uint256",
          "name": "sku",
          "type": "uint256"
        }
      ],
      "name": "shipCrop",
      "outputs": [],
      "payable": false,
      "stateMutability": "nonpayable",
      "type": "function"
    },
    {
      "constant": true,
      "inputs": [
        {
          "internalType": "uint256",
          "name": "_sku",
          "type": "uint256"
        }
      ],
      "name": "fetchItem",
      "outputs": [
        {
          "internalType": "string",
          "name": "name",
          "type": "string"
        },
        {
          "internalType": "uint256",
          "name": "sku",
          "type": "uint256"
        },
        {
          "internalType": "uint256",
          "name": "price",
          "type": "uint256"
        },
        {
          "internalType": "uint256",
          "name": "state",
          "type": "uint256"
        },
        {
          "internalType": "address",
          "name": "buyer",
          "type": "address"
        },
        {
          "internalType": "uint256[]",
          "name": "timestamp",
          "type": "uint256[]"
        }
      ],
      "payable": false,
      "stateMutability": "view",
      "type": "function"
    }
  ],
  "bytecode": "0x608060405234801561001057600080fd5b50600080546001600160a01b03191633178155600155610d1b806100356000396000f3fe608060405234801561001057600080fd5b50600436106100885760003560e01c80635d0cc38f1161005b5780635d0cc38f146101ab5780639eb046dc146101c8578063ad4b9cfb146101e5578063bfb231d2146102e957610088565b8063175400d21461008d5780631a8642da146100ac57806322702473146101745780632d09b9f91461018e575b600080fd5b6100aa600480360360208110156100a357600080fd5b50356103ba565b005b610160600480360360608110156100c257600080fd5b8101906020810181356401000000008111156100dd57600080fd5b8201836020820111156100ef57600080fd5b8035906020019184600183028401116401000000008311171561011157600080fd5b91908080601f01602080910402602001604051908101604052809392919081815260200183838082843760009201919091525092955050823593505050602001356001600160a01b0316610528565b604080519115158252519081900360200190f35b61017c61061c565b60408051918252519081900360200190f35b6100aa600480360360208110156101a457600080fd5b5035610622565b6100aa600480360360208110156101c157600080fd5b5035610709565b6100aa600480360360208110156101de57600080fd5b5035610878565b610202600480360360208110156101fb57600080fd5b50356109a8565b6040518080602001878152602001868152602001858152602001846001600160a01b03166001600160a01b0316815260200180602001838103835289818151815260200191508051906020019080838360005b8381101561026d578181015183820152602001610255565b50505050905090810190601f16801561029a5780820380516001836020036101000a031916815260200191505b508381038252845181528451602091820191808701910280838360005b838110156102cf5781810151838201526020016102b7565b505050509050019850505050505050505060405180910390f35b610306600480360360208110156102ff57600080fd5b5035610b33565b604051808060200186815260200185815260200184600481111561032657fe5b60ff168152602001836001600160a01b03166001600160a01b03168152602001828103825287818151815260200191508051906020019080838360005b8381101561037b578181015183820152602001610363565b50505050905090810190601f1680156103a85780820380516001836020036101000a031916815260200191505b50965050505050505060405180910390f35b806000808281526002602052604090206003015460ff1660048111156103dc57fe5b148015610407575060008181526002602052604090206003015461010090046001600160a01b031615155b610458576040805162461bcd60e51b815260206004820152601d60248201527f43726f7020686173206e6f74206265656e206973737565642079657421000000604482015290519081900360640190fd5b60008281526002602052604090206003015461010090046001600160a01b03163381146104b65760405162461bcd60e51b815260040180806020018281038252602f815260200180610cb8602f913960400191505060405180910390fd5b6000838152600260209081526040808320600301805460ff191660019081179091558054600019018452818420908452600401825291829020429055815185815291517f31f1200b9362bfb6f94533ac7fa85b413d57cdededc63c44b2f83eccd42e6f2d9281900390910190a1505050565b6040805160a08101825284815260015460208083018290528284018690526000606084018190526001600160a01b038616608085015291825260028152928120825180519294919261057d9284920190610bf5565b50602082015181600101556040820151816002015560608201518160030160006101000a81548160ff021916908360048111156105b657fe5b021790555060809190910151600390910180546001600160a01b0390921661010002610100600160a81b03199092169190911790555060018054600090815260026020908152604080832083805260040190915290204290558054810181559392505050565b60015481565b80600260008281526002602052604090206003015460ff16600481111561064557fe5b14610697576040805162461bcd60e51b815260206004820152601f60248201527f43726f7020686173206e6f74206265656e206861727665737465642079657400604482015290519081900360640190fd5b60015460408051918252517fa0e0952eeb8a29015c32288f8634da6a95d211a98004c160bc627df27c3dbecf9181900360200190a15060009081526002602090815260408083206003908101805460ff1916821790556001546000190184528184209084526004019091529020429055565b80600160008281526002602052604090206003015460ff16600481111561072c57fe5b148015610757575060008181526002602052604090206003015461010090046001600160a01b031615155b6107a8576040805162461bcd60e51b815260206004820152601d60248201527f43726f7020686173206e6f74206265656e20706c616e74656420796574000000604482015290519081900360640190fd5b60008281526002602052604090206003015461010090046001600160a01b03163381146108065760405162461bcd60e51b815260040180806020018281038252602f815260200180610cb8602f913960400191505060405180910390fd5b60015460408051918252517fa74c8b09bc697f683f9406d9f1c06817c2df105c46d27e645ba470ae6355b4b49181900360200190a150506000908152600260208181526040808420600301805460ff191684179055600154600019018452808420928452600490920190529020429055565b80600360008281526002602052604090206003015460ff16600481111561089b57fe5b146108d75760405162461bcd60e51b8152600401808060200182810382526027815260200180610c916027913960400191505060405180910390fd5b60008281526002602052604090206003015461010090046001600160a01b03163381146109355760405162461bcd60e51b815260040180806020018281038252602f815260200180610cb8602f913960400191505060405180910390fd5b60015460408051918252517feaf695929fec8154f0eafe7248c0e16855eb9ad09e623be92f669e544d53e8569181900360200190a150506000908152600260209081526040808320600301805460ff19166004908117909155600154600019018452818420818552019091529020429055565b6000818152600260208181526040808420805482516001821615610100026000190190911694909404601f810184900484028501840190925281845260609493849384938493889392909190830182828015610a455780601f10610a1a57610100808354040283529160200191610a45565b820191906000526020600020905b815481529060010190602001808311610a2857829003601f168201915b50505060008a8152600260208190526040909120600181015491810154600390910154949a5090985096505060ff90911690506004811115610a8357fe5b92506002600088815260200190815260200160002060030160019054906101000a90046001600160a01b0316915082600101604051908082528060200260200182016040528015610ade578160200160208202803883390190505b50905060005b838111610b295760008881526002602090815260408083208484526004019091529020548251839083908110610b1657fe5b6020908102919091010152600101610ae4565b5091939550919395565b600260208181526000928352604092839020805484516001821615610100026000190190911693909304601f8101839004830284018301909452838352928391830182828015610bc45780601f10610b9957610100808354040283529160200191610bc4565b820191906000526020600020905b815481529060010190602001808311610ba757829003601f168201915b50505050600183015460028401546003909401549293909290915060ff81169061010090046001600160a01b031685565b828054600181600116156101000203166002900490600052602060002090601f016020900481019282601f10610c3657805160ff1916838001178555610c63565b82800160010185558215610c63579182015b82811115610c63578251825591602001919060010190610c48565b50610c6f929150610c73565b5090565b610c8d91905b80821115610c6f5760008155600101610c79565b9056fe43726f7020686173206e6f74206265656e20766572696669656420666f72207368697070696e67596f752061726520617574686f72697a656420746f20706572666f726d2074686973207472616e73616374696f6e2ea265627a7a7231582056ad2b9346b638abf4e9c2243cf85b16919878436ed13f044d14ee55c59139a464736f6c634300050c0032",
  "source": "\r\npragma solidity ^0.5.0;\r\n\r\ncontract SupplyChain {\r\n\r\n  /* set owner */\r\n  address owner;\r\n\r\n  /* Add a variable called skuCount to track the most recent sku # */\r\n  uint public skuCount;\r\n\r\n  /* Add a line that creates a public mapping that maps the SKU (a number) to an Item.\r\n     Call this mappings items\r\n  */\r\n  mapping (uint => Item) public items;\r\n\r\n  /* Add a line that creates an enum called State. This should have 4 states\r\n    Issued\r\n    Planted\r\n    Harvested\r\n    Shipped\r\n    (declaring them in this order is important)\r\n  */\r\n  enum State {Issued,Planted,Harvested,Verified,Shipped}\r\n\r\n  /* Create a struct named Item.\r\n    Here, add a name, sku, price, state, and buyer\r\n  */\r\n\r\n  struct Item {\r\n    string name;\r\n    uint sku;\r\n    uint price;\r\n    State state;\r\n    address buyer;\r\n    mapping(uint => uint) timestamps;\r\n\r\n  }\r\n\r\n\r\n  /* Create 4 events with the same name as each possible State */\r\n\r\n    event LogIssued(uint sku);\r\n    event LogPlanted(uint sku);\r\n    event LogHarvested(uint sku);\r\n    event LogVerified(uint sku);\r\n    event LogShipped(uint sku);\r\n\r\n/* Create a modifer that checks if the msg.sender is the buyer of the crop */\r\n\r\n  modifier verifyCaller (address _address) {require (msg.sender == _address, \"You are authorized to perform this transaction.\"); _;}\r\n\r\n\r\n  modifier issued(uint _sku){\r\n    require(items[_sku].state == State.Issued && items[_sku].buyer != address(0),\"Crop has not been issued yet!\");\r\n    _;\r\n  }\r\n  modifier planted(uint _sku){\r\n    require(items[_sku].state == State.Planted && items[_sku].buyer != address(0),\"Crop has not been planted yet\");\r\n    _;\r\n  }\r\n  modifier harvested(uint _sku){\r\n    require(items[_sku].state == State.Harvested,\"Crop has not been harvested yet\");\r\n    _;\r\n  }\r\n    modifier verified(uint _sku){\r\n    require(items[_sku].state == State.Verified,\"Crop has not been verified for shipping\");\r\n    _;\r\n  }\r\n  modifier shipped(uint _sku){\r\n    require(items[_sku].state == State.Shipped,\"Crop has not been shipped yet\");\r\n    _;\r\n  }\r\n\r\n\r\n  constructor() public {\r\n    /* Here, set the owner as the person who instantiated the contract\r\n       and set your skuCount to 0. */\r\n       owner = msg.sender;\r\n       skuCount = 0;\r\n  }\r\n\r\n  function issueCrop(string memory _name, uint _price, address _buyer) public returns(bool){\r\n    // emit LogIssued(skuCount);\r\n    items[skuCount] = Item({name: _name, sku: skuCount, price: _price, state: State.Issued, buyer: _buyer});\r\n    items[skuCount].timestamps[0] = block.timestamp;\r\n    skuCount = skuCount + 1;\r\n    return true;\r\n  }\r\n\r\n\r\n  function plantCrop(uint sku) public\r\n  issued(sku) verifyCaller(items[sku].buyer)\r\n  {\r\n    items[sku].state = State.Planted;\r\n    items[skuCount-1].timestamps[1] = block.timestamp;\r\n\r\n     emit LogPlanted(sku);\r\n\r\n  }\r\n\r\n  /* Add 2 modifiers to check if the item is planted already, and that the person calling this function\r\n  is the buyer. Change the state of the item to harvested. Remember to call the event associated with this function!*/\r\n  function harvestCrop(uint sku) public\r\n   planted(sku) verifyCaller(items[sku].buyer)\r\n  {\r\n    emit LogHarvested(skuCount);\r\n    Item storage itm = items[sku];\r\n    itm.state = State.Harvested;\r\n        items[skuCount-1].timestamps[2] = block.timestamp;\r\n\r\n  }\r\n  \r\n    function verifyCrop(uint sku) public\r\n   harvested(sku)\r\n  {\r\n    emit LogVerified(skuCount);\r\n    items[sku].state = State.Verified;\r\n    items[skuCount-1].timestamps[3] = block.timestamp;\r\n\r\n  }\r\n\r\n  /* Add 2 modifiers to check if the item is harvested already, and that the person calling this function\r\n  is the buyer. Change the state of the item to received. Remember to call the event associated with this function!*/\r\n  function shipCrop(uint sku) public\r\n   verified(sku) verifyCaller(items[sku].buyer)\r\n  {\r\n    emit LogShipped(skuCount);\r\n    items[sku].state = State.Shipped;\r\n        items[skuCount-1].timestamps[4] = block.timestamp;\r\n\r\n  }\r\n\r\n\r\n  function fetchItem(uint _sku) public view returns (string memory name, uint sku, uint price, uint state, address buyer, uint[] memory timestamp) {\r\n    name = items[_sku].name;\r\n    sku = items[_sku].sku;\r\n    price = items[_sku].price;\r\n    state = uint(items[_sku].state);\r\n    buyer = items[_sku].buyer;\r\n    timestamp = new uint[](state+1);\r\n    for(uint i = 0; i <= state; i++){\r\n        timestamp[i] = items[_sku].timestamps[i];\r\n    }\r\n    return (name, sku, price, state, buyer, timestamp);\r\n  }\r\n\r\n}\r\n",
  "sourcePath": "D:/Blockchain/AgroChain Project/Smart Contract/contracts/SupplyChain.sol",
  "compiler": {
    "name": "solc",
    "version": "0.5.12+commit.7709ece9.Emscripten.clang"
  },
  "schemaVersion": "3.3.2",
  "updatedAt": "2020-12-11T14:15:01.518Z",
  "networkType": "ethereum",
  "devdoc": {
    "methods": {}
  },
  "userdoc": {
    "methods": {}
  }
}